:020000040800F2
:1000000088120020E1210008892300088B230008C2
:100010008F230008932300089723000800000000A6
:100020000000000000000000000000009B2300080A
:100030009D230008000000009F230008A123000862
:10004000FB210008FB210008FB210008FB21000820
:10005000FB210008FB210008FB210008FB21000810
:10006000FB210008FB210008FB210008FB21000800
:10007000FB210008FB210008FB210008FB210008F0
:10008000FB210008FB210008FB210008FB210008E0
:10009000FB210008FB210008FB210008FB210008D0
:1000A000FB210008FB210008FB210008FB210008C0
:1000B000B16B0008FB210008FB210008FB210008B0
:1000C000FB210008FB210008FB210008FB210008A0
:1000D000FB210008776D0008FB210008FB210008C8
:1000E000FB210008FB210008FB21000800F002F8BA
:1000F00000F062F80AA090E8000C82448344AAF160
:100100000107DA4501D100F057F8AFF2090EBAE85D
:100110000F0013F0010F18BFFB1A43F0010318473B
:1001200020A2000040A200000A444FF0000C10F88A
:10013000013B13F0070408BF10F8014B1D1108BF65
:1001400010F8015B641E05D010F8016B641E01F805
:10015000016BF9D113F0080F1EBF10F8014BAD1C55
:100160000C1B09D16D1E58BF01F801CBFAD505E073
:1001700014F8016B01F8016B6D1EF9D59142D6D3CD
:10018000704700000023002400250026103A28BFF5
:1001900078C1FBD8520728BF30C148BF0B607047F9
:1001A000642906F0BD86632907F01380002070479C
:1001B0001FB51FBD10B510BD07F098F81146FFF729
:1001C000F7FF02F074F807F0B6F803B4FFF7F2FF98
:1001D00003BC06F075FD00000CB5002001900090F6
:1001E0006C48006840F480306A49086000BF694884
:1001F000006800F4003000900198401C01900098C5
:1002000018B90198B0F5A06FF1D16248006800F408
:10021000003010B10120009001E000200090009813
:10022000012843D15C48006840F010005A4908603A
:100230000846006820F0030008600846006840F0A7
:1002400002000860534840685249486008464068C8
:1002500048600846406840F480604860084640684E
:1002600020F47C1048600846406840F4E81048607C
:100270000846006840F08070086000BF454800688C
:1002800000F000700028F9D04248406820F00300D8
:10029000404948600846406840F00200486000BF9E
:1002A0003C48406800F00C000828F9D10CBD10B59E
:1002B000FFF792FF10BD10B53648006840F001000E
:1002C000344908600846406834490840314948606C
:1002D00008460068324908402E4908600846006810
:1002E00020F4802008600846406820F4FE00486042
:1002F0004FF41F008860FFF7DAFF4FF000602949D4
:10030000086010BD10B5002100200022214B5B6861
:1003100003F00C0121B1042906D0082928D107E0F7
:10032000214B224C236027E01F4B204C236023E00D
:10033000184B5B6803F47010164B5B6803F4803253
:10034000022303EB904022B9194B4343174C23601F
:100350000DE0104B5B6803F4003323B1144B4343AF
:10036000124C236003E0104B4343104C236003E026
:100370000D4B0E4C236000BF00BF064B5B68C3F300
:1003800003130C4CE15C094B1B68CB40074C23600A
:1003900010BD000000100240002002400000FFF8E5
:1003A000FFFFF6FE08ED00E000127A0000000020DA
:1003B00000093D000400002031490143314A116029
:1003C000704770B5002100230F22C47804B32D4C70
:1003D000246804F4E064C4F5E064210AC1F1040374
:1003E000CA40447804FA03F1847814402143090197
:1003F000254C0678A155047804F01F050124AC4073
:1004000005786D11AD0005F1E025C5F8004109E062
:10041000047804F01F050124AC401C4D06787611C9
:1004200045F8264070BD1A4A0A400243154B1B1F6F
:100430001A60704739B1134A121D12680243114BFA
:100440001B1D1A6006E00F4A121D126882430D4BF5
:100450001B1D1A607047042808D14FF0E02109697C
:1004600041F004014FF0E022116107E04FF0E0217C
:10047000096921F004014FF0E0221161704700008A
:100480000000FA050CED00E000E400E080E100E08F
:1004900080FFFF1F10B50446CC48844208D10121DB
:1004A000042000F02DFB0021042000F029FB46E091
:1004B000C748844208D10121082000F021FB002117
:1004C000082000F01DFB3AE0C248844208D1012117
:1004D000102000F015FB0021102000F011FB2EE091
:1004E000BD48844208D10121202000F009FB0021F1
:1004F000202000F005FB22E0B848844208D1012109
:10050000402000F0FDFA0021402000F0F9FA16E04A
:10051000B348844208D10121802000F0F1FA002183
:10052000802000F0EDFA0AE0AE48844207D10121B4
:10053000801500F0E5FA0021A01500F0E1FA10BDE9
:1005400010B50121084600F0DBFA0021012000F07F
:10055000D7FA10BD2DE9F041024600250026002003
:1005600000230024002791F803C00CF00F0591F838
:1005700003C00CF0100CBCF1000F03D091F802C0C6
:100580004CEA050591F800C0BCF1000F31D01468A9
:1005900000202BE04FF0010C0CFA00F3B1F800C082
:1005A0000CEA03069E4220D183004FF00F0C0CFA98
:1005B00003F7BC4305FA03FC4CEA040491F803C0BA
:1005C000BCF1280F06D14FF0010C0CFA00FCC2F868
:1005D00014C00AE091F803C0BCF1480F05D14FF0F8
:1005E000010C0CFA00FCC2F810C0401C0828D1D342
:1005F0001460B1F800C0BCF1FF0F34DD5468002076
:100600002EE000F1080C4FF0010808FA0CF3B1F8E5
:1006100000C00CEA03069E4221D183004FF00F0C6C
:100620000CFA03F7BC4305FA03FC4CEA040491F806
:1006300003C0BCF1280F05D100F1080C08FA0CF832
:10064000C2F8148091F803C0BCF1480F07D100F143
:10065000080C4FF0010808FA0CF8C2F81080401C92
:100660000828CED35460BDE8F0814FF6FF710180B9
:10067000022181700421C1707047024600209368F6
:100680000B400BB1012000E0002070470146886854
:1006900080B2704702460020D3680B400BB10120A6
:1006A00000E0002070470146C86880B270470161D1
:1006B0007047416170470AB1016100E041617047D4
:1006C000C16070474FF480320A4382618161826168
:1006D00082698269704702460020434B18684FF6D2
:1006E0008073184040EA021008433F4B186070477F
:1006F0003E49C8617047F0B50A4600230024002136
:10070000002500F00046B6F1004F02D1364EF169E7
:1007100001E0354E7168C0F3034583B200F4401622
:10072000B6F5401F08D121F070612F4E766826F093
:1007300070662D4F7E6012E000F48016B6F5801FC3
:1007400006D1032606FA05F4A14341F0706106E0E4
:10075000460D360103FA06F6B14341F0706122B14D
:10076000460D360103FA06F6314300F00046B6F1B5
:10077000004F02D11C4EF16101E01B4E7160F0BDD3
:1007800030B500228B071C0F0F2303FA04F2164B1F
:1007900008338C1053F824309343134C08348D10D5
:1007A00044F8253023468C1053F824308C07240F4E
:1007B00000FA04F423430C4C08348D1044F825301F
:1007C00030BD0A49DC310860704700000008014074
:1007D000000C0140001001400014014000180140CD
:1007E000001C0140002001400000014000002042A8
:1007F000DF48006840F00100DD49086008464068B5
:10080000DC490840DA49486008460068DA4908408F
:10081000D74908600846006820F480200860084630
:10082000406820F4FE0048604FF41F008860704765
:10083000CF49096821F48031CD4A11601146096819
:1008400021F480211160B0F5803F03D0B0F5802FF6
:100850000ED106E0C649096841F48031C44A1160EE
:1008600007E0C349096841F4A021C14A116000E0D2
:1008700000BF00BF704710B50146002200230020D2
:100880004A11012A02D1BA4C236806E0022A02D199
:10089000B74C236A01E0B64C636A01F01F020124E1
:1008A00094401C400CB1012000E0002010BD38B580
:1008B000002000900024002500BF3120FFF7DBFF5F
:1008C00005460098401C00900098B0F5A06F01D03C
:1008D000002DF2D03120FFF7CEFF08B1012400E057
:1008E0000024204638BD01460020A14A106820F0AF
:1008F000F80040EAC10010607047A04908607047E6
:10090000024600209A4B586820F47C1042EA01030A
:100910001843974B586070479849086670470146DE
:100920000020934A506820F003000843506070474D
:100930008F48406800F00C007047014600208C4A48
:10094000506820F0F00008435060704701460020D6
:10095000874A506820F4E0600843506070470146C1
:100960000020834A506820F4605040EAC100506083
:10097000704729B17E4A527A02437D4B5A7204E095
:100980007B4A527A82437A4B5A7270477B49D831FC
:100990000860704701460020754A506820F44040C6
:1009A0000843506070470021714A20321170704A2C
:1009B00082F82010012802D004280AD104E0012185
:1009C0006B4A2032117005E00521694A203211700E
:1009D00000E000BF00BF7047694908607047644984
:1009E000096A0143624A11627047654944390860E7
:1009F000704730B500210022002400235C4D6D6853
:100A000005F00C0121B1042905D0082923D105E006
:100A10005C4D056022E05B4D05601FE0544D6D6844
:100A200005F47012524D6D6805F48034022505EB13
:100A300092421CB9544D554305600BE04C4D6D6816
:100A400005F400351DB1504D5543056002E04D4D94
:100A50005543056002E04B4D056000BF00BF444DAB
:100A60006D6805F0F0010909484D6B5C0568DD40D3
:100A700045603F4D6D6805F4E061090A434D6B5CCC
:100A80004568DD4085603A4D6D6805F46051C90ADE
:100A90003E4D6B5C4568DD40C560354D6D6805F4C5
:100AA0004041890B3A4D6B5CC568B5FBF3F50561B8
:100AB00030BD29B12E4A526902432D4B5A6104E0E0
:100AC0002B4A526982432A4B5A61704729B1284AFE
:100AD00092690243264B9A6104E0254A9269824357
:100AE000234B9A61704729B1214AD2690243204BB6
:100AF000DA6104E01E4AD26982431D4BDA61704715
:100B000029B11B4AD2680243194BDA6004E0184A43
:100B1000D2688243164BDA60704729B1144A1269D1
:100B20000243134B1A6104E0114A12698243104BCD
:100B30001A61704712494039086070470F49C8640C
:100B400070470B49C87170470948406A40F080708F
:100B500007494862704701460020054A92680A40EA
:100B60000AB1012000E000207047014988727047F7
:100B7000001002400000FFF8FFFFF6FE00004242B6
:100B80008004424200127A0000093D001400002057
:100B90002400002010B50446FB48844209D10121FD
:100BA0008803FFF7ADFF00214FF48040FFF7A8FF57
:100BB00032E0F648844209D101214804FFF7ADFF35
:100BC00000214FF40030FFF7A8FF25E0F0488442F1
:100BD00009D101218804FFF7A0FF00214FF48020F4
:100BE000FFF79BFF18E0EB48844209D10121C804BC
:100BF000FFF793FF00214FF40020FFF78EFF0BE07B
:100C0000E548844208D101210805FFF786FF00214D
:100C10004FF48010FFF781FF10BD2DE9F04786B03B
:100C200005460E460024A24600BFA1460027B08913
:100C300000B100BF2F462C8A4CF6FF700440F088AC
:100C400004432C82AC894EF6F3100440B0883189FD
:100C50000843718908430443AC81AC8A4FF6FF40D6
:100C60000440B0890443AC8201A8FFF7C2FEC64825
:100C7000874202D1DDF810A001E0DDF80CA0A889C0
:100C800000F4004040B10AEBCA0000EB0A103168E2
:100C90004900B0FBF1F807E00AEBCA0000EB0A10CC
:100CA00031688900B0FBF1F86420B8FBF0F0040172
:100CB0002009642101FB1089A88900F4004040B19B
:100CC000322000EBC900B0FBF1F000F00700044354
:100CD00008E0322000EB09106421B0FBF1F000F0D5
:100CE0000F0004432C8106B0BDE8F0874FF4165185
:100CF000016000218180C18001810C21418100219E
:100D00008181704710B502460020108A4FF2FF0320
:100D100018400B884C8823438C882343CC8823437A
:100D20001843108210BD0021018041808180C18064
:100D3000704721B1828942F40052828104E08289A5
:100D40004DF6FF731A4082817047F0B503460024C8
:100D500000260025002040F66A17B94200D100BFE6
:100D60001846C1F3421401F01F06012707FA06F5E1
:100D7000012C01D10C3004E0022C01D1103000E034
:100D800014301AB107682F43076002E00768AF43C9
:100D90000760F0BD1AB1838A0B43838202E0838A25
:100DA0008B4383827047028A4FF6F0731A400282A7
:100DB000028A0A430282704782894FF2FF731A4007
:100DC000828182890A438281704721B1828942F0FF
:100DD0000202828104E082894FF6FD731A4082810B
:100DE0007047028A4FF6DF731A400282028A0A4372
:100DF0000282704721B1028A42F48042028204E0FA
:100E0000028A4BF6FF731A4002827047C1F3080250
:100E10008280704701468888C0F308007047818946
:100E200041F0010181817047028BD2B20283028BB3
:100E300042EA012202837047028B02F47F4202835E
:100E4000028B0A430283704721B1828A42F020025A
:100E5000828204E0828A4FF6DF731A4082827047F2
:100E600021B1828A42F01002828204E0828A4FF627
:100E7000EF731A408282704721B1828A42F00802E1
:100E8000828204E0828A4FF6F7731A4082827047AA
:100E900021B1828942F40042828103E08289C2F357
:100EA0000E028281704721B1828A42F400628282FE
:100EB00004E0828A4FF2FF731A4082827047828A6E
:100EC0004FF6FB731A408282828A0A4382827047FD
:100ED00021B1828A42F00202828204E0828A4FF6C5
:100EE000FD731A408282704702460020B1F5007FF0
:100EF00000D100BF13880B400BB1012000E000209F
:100F0000704701F40072B2F5007F00D100BFCA4300
:100F10000280704770B5024600240023002500209F
:100F200040F66A16B14200D100BFC1F3421501F08C
:100F30001F03012606FA03F3012D02D196893340DF
:100F400006E0022D02D1168A334001E0968A334032
:100F50000C12012606FA04F41688344013B10CB1C1
:100F6000012000E0002070BD10B50022002340F6F3
:100F70006A14A14200D100BF0A1201249440A3B216
:100F8000DC43048010BD00000038014000440040F4
:100F900000480040004C0040005000400020444900
:100FA0000860091D0860091D0860091D08604148A6
:100FB0003F4914310860704700213D498279002A79
:100FC0003AD00A46126803689A430B461A600A1D13
:100FD000126803689A430B1D1A60027911440A686B
:100FE00003681A430A60324A0832126803689A4357
:100FF0002F4B08331A601A1D126803689A432C4B52
:101000000C331A604279102A0ED11A1F1268036835
:101010001A43274B08331A601A1D126803681A43D3
:10102000234B0C331A600DE02149427911440A68C0
:1010300003681A430A6005E0027911440A680368EC
:101040009A430A6070470021016001710C214171CF
:101050000021817170471649103109680143144A13
:1010600010321160704701460020114A1432126894
:101070000A400AB1012000E0002070470C491431F9
:1010800008607047014600200022094B1B6803EAF4
:101090000102074B14331B680B4013B10AB1012046
:1010A00000E00020704702491431086070470000DA
:1010B00000040140FFFF0F0010B50446FE488442C3
:1010C00008D10121C014FFF71BFD0021E014FFF738
:1010D00017FDC4E0B4F1804F08D101210846FFF7A5
:1010E0001CFD00210120FFF718FDB8E0F348844201
:1010F00008D101210220FFF710FD00210220FFF797
:101100000CFDACE0EE48844208D101210420FFF739
:1011100004FD00210420FFF700FDA0E0E94884421F
:1011200008D101210820FFF7F8FC00210820FFF773
:10113000F4FC94E0E448844208D101211020FFF738
:10114000ECFC00211020FFF7E8FC88E0DF48844237
:1011500008D101212020FFF7E0FC00212020FFF72B
:10116000DCFC7CE0DA48844208D101214014FFF71E
:10117000C7FC00216014FFF7C3FC70E0D54884422F
:1011800009D10121C804FFF7BBFC00214FF4002066
:10119000FFF7B6FC63E0D048844209D1012108057D
:1011A000FFF7AEFC00214FF48010FFF7A9FC56E0DA
:1011B000CA48844209D101214805FFF7A1FC00215A
:1011C0004FF40010FFF79CFC49E0C548844208D169
:1011D00001214020FFF7A1FC00214020FFF79DFCEA
:1011E0003DE0C048844208D101218020FFF795FCF2
:1011F00000218020FFF791FC31E0BB48844208D1F8
:1012000001218015FFF789FC0021A015FFF785FC5F
:1012100025E0B648844209D101210804FFF770FC9B
:1012200000214FF48030FFF76BFC18E0B048844297
:1012300009D101214804FFF763FC00214FF400307D
:10124000FFF75EFC0BE0AB48844208D10121880423
:10125000FFF756FC00214FF48020FFF751FC10BD32
:1012600000220288944B98420ED0994B98420BD0A2
:10127000B0F1804F08D0914B984205D0904B9842E6
:1012800002D0904B984204D14FF68F731A404B888E
:101290001A438D4B984207D08C4B984204D04FF69E
:1012A000FF431A40CB881A4302808B8883850B88C2
:1012B0000385814B98420BD0854B984208D08B4BCD
:1012C000984205D08A4B984202D08A4B984201D16D
:1012D0000B7A038601238382704770B500240022B5
:1012E0000023058C4FF6FE7635400584028C8388FA
:1012F000048B4FF68F752C40B51E2C400D882C4367
:10130000751E2A400D892A434D882A436A4DA842FA
:101310000BD06F4DA84208D0744DA84205D0744D33
:10132000A84202D0734DA84213D14FF6F7752A4058
:101330004D892A434FF6FB752A408D882A434FF684
:10134000FF652B404FF6FF552B408D892B43CD89F0
:101350002B4383800483CD888586028470BD70B55D
:10136000002400220023058C4FF6EF7635400584DB
:10137000028C8388048B48F6FF752C404FF6FF459E
:101380002C400D884FF6FF7606EA05252C434FF6D4
:10139000DF752A400D8906EA05152A434D8806EABD
:1013A00005152A43444DA84202D0494DA8421DD1FB
:1013B0004FF67F752A404D894FF6FF7606EA0515F0
:1013C0002A434FF6BF752A408D8806EA05152A4341
:1013D0004FF6FF352B404FF2FF752B408D8906EA03
:1013E00085052B43CD8906EA85052B43838004833D
:1013F000CD880587028470BD70B5002400220023CB
:10140000058C4FF6FF6635400584028C8388848BFB
:101410004FF68F752C404FF6FC752C400D882C43F1
:101420004FF6FF552A400D894FF6FF7606EA05254F
:101430002A434D8806EA05252A431F4DA84202D0BB
:10144000234DA8421DD14FF2FF752A404D894FF61A
:10145000FF7606EA05252A434FF6FF352A408D8898
:1014600006EA05252A434EF6FF752B404DF6FF751B
:101470002B408D8906EA05152B43CD8906EA051513
:101480002B4383808483CD888587028470BD70B5AB
:10149000002200230024058C4EF6FF76354005849B
:1014A000038C8488828B48F6FF752A404FF6FF45EF
:1014B0002A400D8820E00000002C0140000400407C
:1014C00000080040000C00400010004000140040E4
:1014D00000340140004C01400050014000540140E4
:1014E00000180040001C0040002000400040014067
:1014F00000440140004801404FF6FF7606EA05250A
:101500002A434DF6FF752B400D8906EA05352B431E
:101510004D8806EA05352B43FA4DA84202D0FA4D14
:10152000A84208D14BF6FF752C408D894FF6FF7607
:1015300006EA85152C4384808283CD88A0F840502C
:10154000038470BD828B4FF2FF331A408283828BFB
:101550004FF6FF7303EA01231A4382837047F0B505
:101560000C461546002200210026078C4EF6FF7C13
:1015700007EA0C070784828B018C4FF6FF7707EA96
:10158000043640F6FF473A404FF6FF7707EA052753
:101590003A434FF6FF7707EA03373A43D94FB84249
:1015A0000ED0D94FB8420BD0B0F1804F08D0D74FF2
:1015B000B84205D0D64FB84202D0D64FB84206D175
:1015C0004DF6FF77394046F48057394305E047F63A
:1015D000FF57394044F48057394382830184F0BD7A
:1015E000828B4FF6F3731A408283828B0A43828385
:1015F0007047F0B50C461546002200210026078CE6
:101600004FF6FF6C07EA0C070784828B018C4FF6BC
:10161000FF7707EA04264FF60C773A404FF6FF773C
:1016200007EA03172F433A43B64FB8420ED0B64FDE
:10163000B8420BD0B0F1804F08D0B44FB84205D0BB
:10164000B34FB84202D0B34FB84206D14FF6FF575E
:10165000394046F48077394305E04FF2FF5739406F
:1016600044F48077394382830184F0BD028B4FF2CA
:10167000FF331A400283028B4FF6FF7303EA012304
:101680001A4302837047F0B50C461546002200212C
:101690000026078C4FF6EF7C07EA0C070784028BC5
:1016A000018C4FF6FF7707EA041640F6FF473A40F1
:1016B0004FF6FF7707EA03373A434FF6FF7707EA1B
:1016C00005273A438F4FB8420ED08F4FB8420BD008
:1016D000B0F1804F08D08D4FB84205D08C4FB84242
:1016E00002D08C4FB84206D14FF6DF77394046F032
:1016F0001007394305E04FF65F77394044F0100793
:10170000394302830184F0BD028B4FF6F3731A4014
:101710000283028B0A4302837047F0B50C461546DC
:1017200000220021068C4FF6FE773E400684028B95
:10173000018C4FF60C7632407E1C06EA03162E43CF
:101740003243704EB0420ED06F4EB0420BD0B0F16B
:10175000804F08D06D4EB04205D06D4EB04202D0E1
:101760006C4EB04206D14FF6FD76314044F0010692
:10177000314305E04FF6F576314044F00106314340
:1017800002830184F0BD70B505460C465D48854274
:101790000ED05D4885420BD0B5F1804F08D05B4834
:1017A000854205D05A48854202D05A48854200D128
:1017B00000E000BF208850B92389A28861882846AC
:1017C000FFF7ABFFE1882846FFF79EFF25E0208862
:1017D00004280AD12389A28861882846FFF753FF8D
:1017E000E1882846FFF742FF17E0208808280AD141
:1017F0002389A28861882846FFF7FBFEE1882846F6
:10180000FFF7EEFE09E02389A28861882846FFF7EA
:10181000A6FEE1882846FFF795FE70BD2DE9F04150
:1018200005460C4600260127608808B9022600E01C
:101830000026A088012801D1022700E00127208886
:10184000A0B92389A28861882846FFF766FFE1884E
:101850002846FFF759FF23893A4631462846FFF7C5
:1018600012FFE1882846FFF701FF13E02389A288D1
:1018700061882846FFF707FFE1882846FFF7F6FE54
:1018800023893A4631462846FFF747FFE188284634
:10189000FFF73AFFBDE8F0810A884B881A438B882E
:1018A0001A43CB881A430B891A434B891A438B89F5
:1018B0001A43A0F8442070474FF6FF718180002141
:1018C0000180C18041800172704700210180418008
:1018D0008180C180018141818181C1817047002166
:1018E00001804180012181800021C18001817047F8
:1018F0000021018041808180C180018141818181FD
:1019000070470000002C01400034014000040040FA
:1019100000080040000C004021B1028842F00102A2
:10192000028004E002884FF6FE731A40028070477E
:1019300031B1B0F8442042F40042A0F8442005E060
:10194000B0F84420C2F30E02A0F8442070471AB148
:1019500083890B43838102E083898B4383817047B2
:101960008182704741EA0203A0F8483070471AB1FB
:1019700083890B43838102E083898B438381704792
:1019800001894FF6F8721140018170470A46002123
:1019900001894FF68F73194011430181704730B5AB
:1019A00004460D4629462046FFF7F0FF208940F007
:1019B0000700208130BD2DE9F04104460D46164652
:1019C0001F46602D06D13B46012231462046FFF7D7
:1019D0005AFE05E03B46012231462046FFF79DFEB8
:1019E00029462046FFF7D2FF208940F007002081DA
:1019F000BDE8F08130B50C4600210189C9B24FF62F
:101A0000FF7505EA0325154325432943018130BDB0
:101A10002DE9F04105460E461746984600244346F8
:101A20003A4631462846FFF7E5FF2C894FF6F87015
:101A3000044044F007044FF68F70044044F07004F3
:101A40002C81BDE8F081F0B504460D4616461F46D0
:101A50003B46324629462046FFF7CCFF208940F41A
:101A600080402081F0BD0185828270470A460021B6
:101A700001884FF68F731940114301807047F0B50C
:101A80000C4615461E460021002200230189028BC8
:101A9000038C4FF6F877394021434FF6FC473A4024
:101AA00040F201173A434FF6DD773B404FF6FF77A0
:101AB00007EA06172F433B43018102830384F0BDED
:101AC0000A460021018B4FF68F73194011430183A1
:101AD00070470A460021018B48F6FF7319404FF604
:101AE000FF7303EA02231943018370470A4600216A
:101AF000818B4FF68F7319401143818370470A46DB
:101B00000021818B48F6FF7319404FF6FF7303EAFB
:101B1000022319438183704721B1028842F0800279
:101B2000028004E002884FF67F731A4002807047FB
:101B300021B1828842F00402828004E082884FF65C
:101B4000FB731A408280704721B1828842F00802FC
:101B5000828004E082884FF6F7731A4082807047D3
:101B600021B1828842F00102828004E082884FF62F
:101B7000FE731A40828070470A460021018B4FF69F
:101B8000F77319401143018370470A460021018B06
:101B90004FF2FF7319404FF6FF7303EA0223194314
:101BA000018370470A460021818B4FF6F773194075
:101BB0001143818370470A460021818B4FF2FF73E6
:101BC00019404FF6FF7303EA0223194381837047DC
:101BD0000A460021018B4FF6FB7319401143018324
:101BE00070470A460021018B4FF6FF3319404FF62C
:101BF000FF7303EA02231943018370470A46002159
:101C0000818B4FF6FB7319401143818370470A465D
:101C10000021818B4FF6FF3319404FF6FF7303EA23
:101C200002231943818370470A460021018B4FF636
:101C30007F7319401143018370470A460021018BCD
:101C4000C1F30E014FF6FF7303EA02231943018328
:101C500070470A460021818B4FF67F73194011436C
:101C6000818370470A460021818BC1F30E014FF634
:101C7000FF7303EA02231943818370470A46002158
:101C8000018C4FF6FD7319401143018470470A46D9
:101C90000021018C4FF6F7731940114301847047FE
:101CA0000A460021018C4FF6DF7319404FF6FF738F
:101CB00003EA02131943018470470A460021018C8C
:101CC0004FF67F7319404FF6FF7303EA021319436F
:101CD000018470470A460021018C4FF6FF531940DA
:101CE0004FF6FF7303EA02231943018470470A4643
:101CF0000021018C4FF2FF7319404FF6FF7303EA86
:101D000002231943018470470A460021018C4DF6D5
:101D1000FF7319404FF6FF7303EA0233194301843E
:101D2000704730B5002301248C40A3B2048C9C433F
:101D30000484048C02FA01F5ADB22C43048430BD56
:101D400030B5002304248C40A3B2048C9C4304844B
:101D5000048C02FA01F5ADB22C43048430BD70B599
:101D60000346002000241846183001258D40ACB2EF
:101D70001D8CA5431D8409B1082909D100EB610020
:101D8000056825F0700505600568154305600EE0DF
:101D90000D1FC5F34E052844056825F4E045056090
:101DA00005684FF6FF7606EA02263543056070BDEA
:101DB00021B1028842F00202028004E002884FF65C
:101DC000FD731A400280704721B1028842F004027C
:101DD000028004E002884FF6FB731A4002807047CD
:101DE00021B1828842F08002828004E082884FF62E
:101DF0007F731A408280704702884FF6F7731A404B
:101E0000028002880A430280704782884FF68F73EF
:101E10001A40828082880A438280704702894FF686
:101E2000F8731A40028102890A43028170470289CD
:101E30004FF67F731A40028102890A43028170477C
:101E4000818470478185704781867047018770471C
:101E500081877047A0F84010704702884FF6FF4313
:101E60001A40028002880A43028070470146888E29
:101E700070470146088F70470146888F70470146BA
:101E8000B1F8400070470146888C70470146088DC4
:101E9000704702460020138A0B400BB1012000E07E
:101EA00000207047CA430282704730B502460020C6
:101EB00000230024158A05EA0103958905EA010437
:101EC00013B10CB1012000E0002030BDCA430282F2
:101ED0007047000010B50446BE48844208D1012175
:101EE0008014FEF70DFE0021A014FEF709FE16E097
:101EF000B948844208D101210014FEF70EFE0021EA
:101F00002014FEF70AFE0AE0B448844207D10121FA
:101F1000C013FEF702FE0021E013FEF7FEFD10BD28
:101F200010B50022028802F441520B884C882343EA
:101F30008C882343CC8823430C8923434C89234337
:101F40008C892343CC8923431A430280838B4FF22D
:101F5000FF74234083830B8A038210BD2DE9F04F69
:101F600085B005460C464FF0000902274FF00008E7
:101F70004FF0010B0026B246A88B4FF240010840FB
:101F8000A88302202884B5F81C90A068022801D1FB
:101F900000BF38E0A08810B94FF0010B01E04FF00E
:101FA000020B8D48854200D100E000BF6846FEF775
:101FB00020FDDDF800A0E088B0F5007F0AD14FEAEF
:101FC0001A2000EB80004000A168B0FBF1F0401D3A
:101FD00086B20BE04FEA4B10BAFBF0F000EB80004A
:101FE0004000A168B0FBF1F0401D86B20A20B6FBAC
:101FF000F0F606F00108A6EB0800C0F34F074FF615
:10200000FF7000EA0828022F01DBFF2F02DD022704
:102010004FF00008E08840EA080038432884A08890
:10202000A1890843618808432188084340F400607F
:1020300040EA0909A5F81C9005B0BDE8F08F002121
:10204000018041808180C180018141818181C18184
:102050000721018270470021018041808180C18079
:102060000221816000218181704721B1028842F004
:102070004002028004E002884FF6BF731A400280DB
:10208000704721B1828B42F48062828304E0828BAC
:102090004FF6FF331A408283704730B50024002387
:1020A0000C110125A540ABB21AB185881D4385806E
:1020B00002E085889D43858030BD1AB183880B433B
:1020C000838002E083888B438380704781817047DF
:1020D0000146888970474FF6FF62914204D002881A
:1020E00042F48072028004E002884FF6FF631A40D7
:1020F0000280704721B1828842F00402828004E0AD
:1021000082884FF6FB731A408280704702884FF234
:10211000FF731A40028002880A43028070470188D8
:1021200041F480510180704721B1028842F400528D
:10213000028004E002884DF6FF731A400280704767
:1021400002460020012901D0108B00E0908A7047E0
:102150000146088A7047B1F5804F04D1028842F4E5
:102160008042028004E002884BF6FF731A4002802E
:1021700070470246002013890B400BB1012000E09C
:1021800000207047CA4302817047F0B50246002024
:1021900000240023002501F00F070126BE40B4B241
:1021A0000B1101269E40B3B2968806EA03051689F4
:1021B000264016B10DB1012000E00020F0BD10B5A1
:1021C000002201F00F040123A3409AB2D3430381FC
:1021D00010BD00000030014000380040003C0040CD
:1021E0000948804709480047FEE7FEE7FEE7FEE7AB
:1021F000FEE7FEE7FEE7FEE7FEE7FEE704480549E7
:10220000054A064B70470000B7020008ED000008C1
:10221000880C002088120020880E0020880E0020E4
:1022200010B500244C49522000F000FB4B490870C7
:102230000846007830B902200870494800F021FBB8
:102240004649087045480078D8B9012045490860DA
:10225000002414E04448005D4149095D884205D1ED
:102260004248006840004149086007E04FF0FF30F5
:102270003E4908600846006840000860641C042C61
:10228000E8DB38480068012806D138480068002893
:1022900002DA4FF0FF3010BD32480068012804D147
:1022A0003248006808B90120F5E700BFF3E708B538
:1022B000002404F095FC04F0FDFC4FF4165004F0EB
:1022C0000EFD00F0F4F900F08BFF00F0F0FF04F0D9
:1022D0003BFA04F04DFA40F2CF2141F2883004F08D
:1022E00039FC00F0B9FE00F08EFD21480823802261
:1022F00000210090084600F074FE1EA20621002076
:1023000000F023FE26E0FFF78BFF1C4908601C4805
:10231000006806F0D9FA0546102003232A46062154
:102320000090322000F0CFFD14480068012805D14C
:1023300000F089FF0124002010490860012C09D118
:1023400000F065FF0F49086008460068012801D1C8
:1023500000F08EFFD7E70000280800204808002082
:102360002A080020540800202E0800204C080020D5
:1023700028040020416E676C653A00005008002078
:10238000600800205C080020704700BFFEE700BF27
:10239000FEE700BFFEE700BFFEE7704770477047EB
:1023A00070470000002103E000BF00BF00BF491CD0
:1023B0008142F9D37047014600BFFE48008800F013
:1023C00002000028F9D0FB48001D018000BFF94839
:1023D000008800F001000028F9D0F648001D0088B0
:1023E000C0B2704770B50546002405E0601CC4B259
:1023F000C82C01DD002070BD0221EE480838FFF72F
:10240000B8FE0028F2D02946EA480838FFF75EFEF9
:10241000002405E0601CC4B2C82C01DD0020EAE7FE
:102420000121E4480838FFF7A4FE0028F2D0E14873
:102430000838FFF74DFEC0B2DDE710B50446DD48B1
:10244000083800884FF6C7710840DA490839088013
:1024500008460088204308800121D6480838FFF745
:1024600004FE10BD00B587B001210820FEF72EFB49
:1024700001218803FEF737FB4FF4A050ADF8180098
:1024800010208DF81B0003208DF81A0006A9CA48F9
:10249000FEF760F84FF48061C748FEF70AF94FF481
:1024A0006040ADF8180018208DF81B0003208DF84F
:1024B0001A0006A9C048FEF74DF84FF46041BE4827
:1024C000FEF7F5F80020ADF804004FF48270ADF887
:1024D00006000020ADF80800ADF80A00ADF80C00C9
:1024E0004FF40070ADF80E003820ADF81000002059
:1024F000ADF812000720ADF8140001A9AD48083866
:10250000FFF70EFD0121AB480838FFF7AEFD07B01D
:1025100000BD10B502460B464FF48050A649143159
:1025200008607E2000EA42042046FFF744FF184678
:10253000FFF741FF4FF480509F491031086010BDF4
:1025400010B5024600244FF480509B4914310860B6
:102550007E2000EA420040F080031846FFF72BFF80
:102560000020FFF728FF04464FF4805092491031B5
:102570000860204610BD70B505460C46002628466A
:10258000FFF7DEFF064646EA04012846FFF7C1FFD3
:1025900070BD10B51420FFF7D3FF044604F003000C
:1025A00018B903211420FFF7E6FF10BD70B50546EA
:1025B0000C4600262846FFF7C3FF064626EA04011C
:1025C0002846FFF7A6FF70BD10B50446412C26D162
:1025D00008210846FFF7EAFF3D211120FFF799FF88
:1025E00086211720FFF795FF7F212620FFF791FF17
:1025F0001E212D20FFF78DFF00212C20FFF789FFE2
:102600008D212A20FFF785FF3E212B20FFF781FF38
:102610004FF47A70FFF7C6FEFFF7BBFF01E0012021
:1026200010BD0020FCE700B503211420FFF7BEFF1A
:1026300000BD00B54FF480605F49103108600A208A
:10264000FFF7B0FE4FF480605B49143108600A2048
:10265000FFF7A8FE4FF480605749103108600A2048
:10266000FFF7A0FE0F210120FFF753FF0F210120EC
:10267000FFF74FFF0A20FFF795FE3D211120FFF7DE
:1026800048FF1E212D20FFF744FF00212C20FFF7DB
:1026900040FF8D212A20FFF73CFF3E212B20FFF732
:1026A00038FF40211520FFF734FF002000BD10B592
:1026B000FFF7D8FEFFF7BDFFFFF7B5FF022004F0DC
:1026C000CCFAFFF766FF4120FFF77EFF10BD10B583
:1026D000FFF7AFFFFFF7A7FF022004F0BEFAFFF7F6
:1026E00058FF10BD2DE9FE4F0646884691469A4692
:1026F000DDF830B0022002900020019000900C2EF6
:1027000006D00E2E09D1122001901020009005E075
:10271000772001903020009000E000BF00BF0198BA
:1027200040F080010220FFF7F4FE80210420FFF733
:102730003DFF00210120FFF7ECFE80210A20FFF77A
:102740001AFF002506E018F805100920FFF7E1FE42
:10275000681C85B24D45F6DB31460120FFF7D9FEF6
:102760000C2E03D180210D20FFF705FF4FF4FA65F1
:1027700000BF0420FFF7E4FE0446681E85B235B1B1
:1027800004F0010018B9009820400028F1D0802101
:102790000D20FFF70BFF002D3DD00620FFF7D0FEE8
:1027A00000F01B00A0BB002002900198204000F028
:1027B000010003E008380040000C014008B101208E
:1027C00002900C2E27D10A20FFF7BAFE04460C20F7
:1027D000FFF7B6FE00F007072FB1601E07EBC00041
:1027E0008BF8000003E0E006000E8BF8000004B94F
:1027F0000124122C00DD1224002506E00920FFF739
:102800009FFE0AF80500681C85B2A542F6DB02E0CF
:10281000FFE70220029080210C20FFF7ACFE002190
:102820000120FFF776FE0298BDE8FE8F70B587B0F5
:1028300005460C4608210846FFF7B8FE07210D2083
:10284000FFF767FE03211420FFF795FE8DF8045073
:1028500006A801AB012201A900900C20FFF742FF5E
:10286000064656B99DF81800102806D19DF80400B8
:1028700020709DF80500607000E00226304607B029
:1028800070BDF0B587B00546002708210846FFF760
:102890008DFE00210D20FFF73CFE80210E20FFF76A
:1028A00085FE93208DF8040020208DF8050006A8F1
:1028B00001AB022201A900900C20FFF713FF06468E
:1028C00086B9002407E001A8005D285501A8005D35
:1028D0004740601CC4B2042CF5DB01A8005DB8427F
:1028E00000D0022680210E20FFF745FE304607B0BB
:1028F000F0BD2DE9F0410746884615460421052024
:10290000FFF754FE00210120FFF703FE80210A207B
:10291000FFF731FE002405E0395D0920FFF7F9FDDE
:10292000601CC4B24445F7DB03210120FFF7F1FD31
:10293000FF2400BF0520FFF703FE0646601EC4B259
:102940001CB106F004000028F4D02220FFF7F8FDA7
:1029500028702120FFF7F4FD6870BDE8F08170B5A4
:1029600087B0054693208DF8040070208DF805008F
:1029700000208DF80A0000240BE0295D01AAA01CAC
:1029800011549DF80A00295D48408DF80A00601C2A
:10299000C4B2042CF1DB0DF10B02072101A8FFF7F3
:1029A000A8FF08210846FFF701FE06A801AB09228F
:1029B00001A900900C20FFF795FE06462EB99DF860
:1029C0001800182801D1002600E00226304607B082
:1029D00070BD2DE9F04787B006460F4690469946F0
:1029E00000254FF0030A8DF804608DF80570D9F8C2
:1029F0000000039000BF1FE000BF05EB450008EB9F
:102A000040000168CDF806108088ADF80A0006A8DD
:102A100001AB0C2201A900900E20FFF763FE0446D3
:102A2000AAF1010000F0FF0A14B1BAF1000FE4DCD2
:102A300004B903E0681CC5B2052DDDDD00BF2CB96B
:102A40000820FFF77DFD00F0080000B902242046B1
:102A500007B0BDE8F08770B587B0054630208DF827
:102A600004008DF805500DF10602022101A8FFF7C0
:102A700040FF06A801AB042201A900900C20FFF73B
:102A800031FE064676B99DF8180090280AD1002438
:102A900005E001A8005DA6490855601CC4B2102CD1
:102AA000F7DB00E00226304607B070BDF0B587B016
:102AB00006460F46A0208DF804008DF805600DF144
:102AC0000602022101A8FFF714FF06A801AB0422A9
:102AD00001A900900C20FFF705FE05464DB99DF8B1
:102AE0001800042805D19DF8040000F00F000A2802
:102AF00000D0022515BB002404E0385D01A908556B
:102B0000601CC4B2102CF8DB05AA102101A8FFF745
:102B1000F0FE06A801AB122201A900900C20FFF7DD
:102B2000E1FD05464DB99DF81800042805D19DF832
:102B3000040000F00F000A2800D00225284607B044
:102B4000F0BD10B587B050208DF8040000208DF83E
:102B500005000DF10602022101A8FFF7CAFE06A832
:102B600001AB042201A900900C20FFF7BBFD044635
:102B7000002007B010BDF0B587B006460D461746D9
:102B80008DF804608DF805500DF10602022101A8B0
:102B9000FFF7AFFE06A801AB042201A900900C20AC
:102BA000FFF7A0FD04464CB99DF81800042805D194
:102BB0009DF8040000F00F000A2800D00224A4B9F8
:102BC0003868019002AA042101A8FFF792FE0020B4
:102BD000069006A801AB062201A900900C20FFF781
:102BE00081FD0446022C00D00024FCB9B0208DF8F1
:102BF00004008DF805500DF10602022101A8FFF72F
:102C000078FE06A801AB042201A900900C20FFF772
:102C100069FD04464CB99DF81800042805D19DF8BB
:102C2000040000F00F000A2800D00224204607B05C
:102C3000F0BD70B587B005460E46C2208DF8040081
:102C40008DF805500DF10602022101A8FFF751FE93
:102C500006A801AB042201A900900C20FFF742FD59
:102C600004464CB99DF81800042805D19DF80400CD
:102C700000F00F000A2800D00224CCB900208DF803
:102C800004008DF805008DF806008DF8070002AAF3
:102C9000042101A8FFF72DFE06A801AB062201A919
:102CA00000900C20FFF71EFD0446022C00D00024EB
:102CB00014B1022007B070BDB0208DF804008DF86B
:102CC00005600DF10602022101A8FFF712FE06A819
:102CD00001AB042201A900900C20FFF703FD04467C
:102CE0004CB99DF81800042805D19DF8040000F0A7
:102CF0000F000A2800D002242046DBE7F0B5044686
:102D00000D4616461F463B462A4621466020FFF7E1
:102D100060FE08B10020F0BD31462046FFF7C6FE38
:102D200008B10020F7E7FFF70CFFFF20F3E70000F2
:102D30003208002070B504460E4626B10221FE4836
:102D4000FDF7B5FC03E00221FB48FDF7B2FC1021C2
:102D5000FA48FDF7AEFC002517E02021F748FDF703
:102D6000A8FC04F0800020B18021F448FDF79FFC0E
:102D700003E08021F148FDF79CFC2021EF48FDF79E
:102D800096FC6006040E681CC5B2082DE5DB102118
:102D9000EA48FDF78CFC0221E748FDF788FC70BD8E
:102DA00070B504460D4605F1B001C8B20021FFF729
:102DB000C1FF102141EA14100021FFF7BBFF04F00E
:102DC0000F0141F001000021FFF7B4FF70BD10B505
:102DD00000218D20FFF7AEFF00211420FFF7AAFF8E
:102DE0000021AF20FFF7A6FF10BD10B500218D20F8
:102DF000FFF7A0FF00211020FFF79CFF0021AE206D
:102E0000FFF798FF10BD70B5002419E004F1B00180
:102E1000C8B20021FFF78EFF00210846FFF78AFFA6
:102E200000211020FFF786FF002505E0012100208A
:102E3000FFF780FF681CC5B2802DF7DB601CC4B2B1
:102E4000082CE3DB70BD2DE9F04107460E469046A5
:102E500000250024A8F12000C5B27F2F02DD002745
:102E6000B01CC6B231463846FFF79AFF002408E08E
:102E700004EB0511B24A505C0121FFF75BFF601CB7
:102E8000C4B2082CF4DB701CC1B23846FFF788FFCF
:102E9000002409E004EB05110831A94A505C012126
:102EA000FFF748FF601CC4B2082CF3DBBDE8F081DB
:102EB00010B50246012000E050430B1EA1F10104B1
:102EC000E1B2F9D110BD2DE9FF5F074691461D46DD
:102ED0000E9E4FF0000A002433E0281B401EC1B2B2
:102EE0000A20FFF7E5FFB9FBF0F00A21B0FBF1F291
:102EF00001FB1208BAF1000F13D1681EA04210DDC9
:102F0000B8F1000F0BD1B34606EBDB71491001FBA2
:102F10000471C8B220220199FFF795FF0FE04FF02E
:102F2000010AB34606EBDB71491001FB0471C8B21C
:102F300008F13001CAB20199FFF785FF00BF601C9C
:102F4000C4B2AC42C9DBBDE8FF9F2DE9F0410446A5
:102F50000F46154600260EE0AA5D39462046FFF7CB
:102F600072FF04F10800C4B2782C02DD0024B81C02
:102F7000C7B2701CC6B2A85D0028EDD1BDE8F081D3
:102F80002DE9F04180460E46154600273146404661
:102F9000FFF706FF00240AE06A4A02EB8511085D8C
:102FA0000121FFF7C7FE781CC7B2601CC4B2102C09
:102FB000F2DB701CC1B24046FFF7F2FE00240CE0C9
:102FC0006900491C5F4A02EB4111085D0121FFF7CE
:102FD000B1FE781CC7B2601CC4B2102CF0DBBDE897
:102FE000F0812DE9F05F06460F4690461C46DDF85D
:102FF00028A04FF0000BE11704EB5171C910A4EBAE
:10300000C10131B92046E11704EB5171C1F3C70585
:1030100006E02046E11704EB5171C910491CCDB2FE
:103020003D4615E029463046FFF7BAFEB1460BE0B3
:1030300059460BF1010B1AF801000121FFF77AFE46
:1030400009F1010000F0FF09C145F1DB681CC5B2C0
:10305000A542E7DBBDE8F09F08B501210420FDF79C
:1030600035FDB020ADF8000010208DF803000320DE
:103070008DF8020069463148FDF76CFAB0212F48FF
:10308000FDF715FB01210820FDF720FD40F203109C
:10309000ADF8000010208DF8030003208DF8020029
:1030A00069462548FDF756FA40F203112248FDF71C
:1030B000FEFA01212048FDF7FAFA642003F0CDFD65
:1030C00001211D48FDF7F5FAC82003F0C6FD0121D6
:1030D0001948FDF7ECFA0021AE20FFF72BFE002186
:1030E0000846FFF727FE00211020FFF723FE0021EE
:1030F0004020FFF71FFE00218120FFF71BFE00216B
:10310000CF20FFF717FE0021A120FFF713FE0021BB
:10311000C820FFF70FFE0021A620FFF70BFE0021BD
:10312000A820FFF707FE00213F20FFF703FE002144
:10313000D320FFF7FFFD07E0000C0140000801402D
:10314000C68F00086C08002000210846FFF7F2FD3A
:103150000021D520FFF7EEFD00218020FFF7EAFDDA
:103160000021D920FFF7E6FD0021F120FFF7E2FD65
:103170000021DA20FFF7DEFD00211220FFF7DAFD43
:103180000021DB20FFF7D6FD00214020FFF7D2FD14
:1031900000212020FFF7CEFD00210220FFF7CAFD0D
:1031A00000218D20FFF7C6FD00211420FFF7C2FD8E
:1031B0000021A420FFF7BEFD0021A620FFF7BAFDE5
:1031C0000021AF20FFF7B6FD0021AF20FFF7B2FDD1
:1031D000FFF719FE00210846FFF7E2FD08BD0000D9
:1031E00008B501210420FDF771FC0820ADF80000AE
:1031F00048208DF8030001208DF802006946094837
:10320000FDF7A8F908210848FDF751FA08BD10B5E7
:1032100008210548FDF731FA012800D110BD002032
:10322000FCE70000000C01400008014010B500243C
:1032300000BF05E01648015D16A003F007FE641C00
:10324000052CF7DB10BD10B500241348006868B9E1
:1032500000BF05E01148015D0EA003F0F7FD641CFE
:103260000F2CF7DB01200C49086010BD0020FCE7A3
:1032700010B500240020044606E00948015D05A0C1
:1032800003F0E4FD601C04460F2CF6DB10BD0000CB
:103290002C0A00202563000058080020310A002075
:1032A000400A002010B5022003F0B3FC10BD08B5A1
:1032B00001210820FDF70AFCC020ADF80000102015
:1032C0008DF8030003208DF802006946FC48FDF7E5
:1032D00041F9C021FA48FDF7EAF908BD10B5F848F0
:1032E000006820F07040F64908600846006840F029
:1032F000405008600120F3490860F348D0F81C01F1
:1033000008B9002010BD0120EE49091F0860FFF731
:10331000C9FF0020EC49C1F89C01EA4880380068E8
:1033200008B10020EEE7FFF7BDFF0020E549091FC7
:1033300008600120E6E710B5E148006820F0704021
:10334000DF4908600846006840F0405008600020EF
:10335000DC49091F0860DC49C1F89C01FFF7A2FFA6
:103360000120D849091F0860D749C1F89C01FFF71F
:1033700099FF10BD10B50024D148006820F07040BE
:10338000CF4908600846006840F00040086001200E
:10339000CC490860FFF786FF0120CB49C1F89801AE
:1033A000FFF780FF09E0601CC4B2642C03DDFFF767
:1033B000C2FF002010BDFFF775FFC24880380068CB
:1033C0000028F0D1BF49091F08600120F2E710B5BD
:1033D0000020BC49091F0860B948006820F070400F
:1033E000B74908600846006840F040500860002077
:1033F000B549C1F89C01FFF755FF0120B149091FEC
:103400000860FFF74FFF0020AF49C1F8980110BDD9
:1034100010B50020AB49091F0860A948006820F0DA
:103420007040A74908600846006840F040500860B6
:103430000120A549C1F89C01FFF734FF0120A149F3
:10344000091F0860FFF72EFF00209F49C1F898016F
:1034500010BD70B504469A48006820F07040984945
:1034600008600846006840F0405008600020954918
:10347000091F086000251AE0E00918B101209149F0
:10348000086002E000208F4908606006040EFFF724
:1034900009FF01208B49091F0860FFF703FF002087
:1034A0008949C1F89801FFF7FDFE681CC5B2082DD7
:1034B000E2DB70BD70B5054600248148006820F04D
:1034C00070407F4908600846006840F0004008608E
:1034D000002615E000207B49091F0860FFF7E2FE87
:1034E00001207949C1F898016006040E75488038BA
:1034F000006808B1601CC4B2FFF7D4FE701CC6B2ED
:10350000082EE7DB15B9FFF783FF01E0FFF75FFF48
:10351000204670BD2DE9F04105460E4617469846F7
:10352000FFF7DCFE10B90120BDE8F0816906080E46
:10353000FFF78FFFFFF71EFF18B9FFF7FCFE012012
:10354000F2E73046FFF785FFFFF714FF00240BE09A
:1035500018F80400FFF77DFFFFF70CFF18B9FFF71D
:10356000EAFE0020E0E7641CBC42F1DBFFF7E3FE6B
:103570000020D9E72DE9F04106460F4614461D46C6
:10358000FFF7ACFE10B90120BDE8F0817106080E0E
:10359000FFF75FFFFFF7EEFE18B9FFF7CCFE012043
:1035A000F2E73846FFF755FFFFF7E4FEFFF796FE18
:1035B000012101EB4601C8B2FFF74BFFFFF7DAFE2E
:1035C0000DE0012C04D10020FFF774FF287003E008
:1035D0000120FFF76FFF28706D1C601EC4B2002C25
:1035E000EFD1FFF7A8FE0020CEE770B505460E46E6
:1035F0000024FFF773FE2846FFF72BFF641CFFF73C
:10360000B9FE3046FFF725FF641CFFF7B3FEFFF756
:1036100065FE691CC8B2FFF71CFF641CFFF7AAFE19
:103620000020FFF747FF0446FFF785FE204670BDE8
:103630002DE9F0410746884615461E460024FFF74F
:103640004DFE3846FFF705FFFFF794FE4046FFF7B3
:1036500000FFFFF78FFEFFF741FE791CC8B2FFF7AE
:10366000F8FEFFF787FE00BF0DE0681EA04204D001
:103670000120FFF71FFF305503E00020FFF71AFF7E
:103680003055601CC4B2AC42EFDBFFF754FE20465D
:10369000BDE8F0812DE9F04180460D4616461F46F3
:1036A0000024FFF71BFE4046FFF7D3FEFFF762FE44
:1036B0002846FFF7CEFEFFF75DFE00BF0DE00000DD
:1036C000000C01409C81214200802142385DFFF7BF
:1036D000C0FEFFF74FFE601CC4B2B442F6DBFFF73A
:1036E0002AFE0120BDE8F08170B505460E4614465D
:1036F00031462846FFF779FF2070012070BD37B5AD
:1037000004460D4602AB012229462046FFF7C2FFC0
:103710003EBD2DE9F8430746884614461D46089EDF
:103720006A4641463846FFF7DFFF28B3601CFF2199
:1037300001FA00F0C4F108012944491EFF220A41A0
:10374000104300F0FF09C5F1080006FA00F0C6B208
:10375000C4F1070006419DF8000000EA090000904E
:103760009DF80000304300909DF800204146384607
:10377000FFF7C5FFBDE8F8830020FBE7F8B5064674
:103780000F4614461D466A4639463046FFF7ACFFE1
:103790002DB10120A0409DF80010084305E0012054
:1037A000A0409DF8001021EA0000C0B200909DF8F2
:1037B000002039463046FFF7A2FFF8BD38B5044671
:1037C000FB4890F82400C0B114B10220009001E041
:1037D00000200090F64A1268D17BF54A52681078B2
:1037E0006B460122FFF796FE10B14FF0FF3038BD57
:1037F0009DF80010EE48417423E0ED48807A10B93E
:103800004FF0FF30F3E724B1E948407C08B10020D5
:10381000EDE714B10120009001E000200090E44A9F
:103820001268D17BE24A526810786B460122FFF79A
:1038300071FE10B14FF0FF30D9E79DF80010DC4861
:1038400041740020D3E738B5002419E0D848006857
:10385000C07AA04204D0D6480068407DA04200D182
:103860000CE0D349496808786B4601222146FFF7EE
:1038700081FE10B14FF0FF3038BD00BF601CC4B2F4
:10388000CB4840680079A042E0DC0020F4E770B546
:1038900004460D46C6480068C07AA04204D0C44819
:1038A0000068407DA04202D14FF0FF3070BDC0489B
:1038B00040680079A04202DC4FF0FF30F6E7BC49D7
:1038C000496808782B4601222146FFF753FEEDE7B1
:1038D00038B50446B64890F82300A04201D1002034
:1038E00038BD14B13020009001E000200090B048B5
:1038F000807C20B19DF8000040F002000090AC48B0
:1039000090F8220020B19DF8000040F08000009067
:10391000A74A1268117DA64A526810786B460122A8
:10392000FFF7F8FD10B14FF0FF30D9E7A04880F85D
:1039300023400020D4E738B5044604F0700010B1ED
:103940000120009005E014B10020009001E040202B
:103950000090974A1268917C954A526810786B469D
:103960000122FFF7D7FD20B1002191488172481E46
:1039700038BD9DF8000020F040018D480173002003
:10398000009004F0400020B99DF8000040F00400D1
:10399000009004F0200020B99DF8000040F00200E3
:1039A000009004F0100020B99DF8000040F00100E4
:1039B000009004F0080020B99DF8000040F03800A5
:1039C00000907B4A1268D17C794A526810786B4625
:1039D0000122FFF79FFD20B1002175488172481E2A
:1039E000C6E724B1082C02D00020FFF771FF704811
:1039F000847200210175322003F02FF90020B7E70F
:103A000038B504466A48807CA04201D1002038BD08
:103A1000002C46D0664A12681179654A52681078BF
:103A20006B460122FFF7A6FD10B14FF0FF30EEE725
:103A30009DF8000020F0200000905D4A1268117986
:103A40005B4A526810786B460122FFF763FD10B1A4
:103A50004FF0FF30DBE7032003F0FFF80220009077
:103A6000534890F8220020B19DF8000040F08000FB
:103A700000904F4890F8230020B19DF8000040F0DE
:103A8000300000904A4A1268117D494A5268107805
:103A90006B460122FFF73EFD002851D04FF0FF306A
:103AA000B5E7434A12681179414A526810786B466B
:103AB0000122FFF75FFD10B14FF0FF30A7E73C4850
:103AC000807A00F0010028B19DF8000040F020004D
:103AD000009004E09DF8000020F020000090344A9F
:103AE00012681179324A526810786B460122FFF74A
:103AF00011FD10B14FF0FF3089E7032003F0ADF85E
:103B00002B4890F8220010B18020009001E00020A6
:103B10000090274890F8230020B19DF8000040F065
:103B200030000090224A1268117D214A52681078B4
:103B30006B460122FFF7EEFC10B14FF0FF3066E755
:103B40001B488474002062E708B51948807A10B9D0
:103B50004FF0FF3008BD00200090154A1268D17B5D
:103B6000134A526810786B460122FFF7D3FC10B15C
:103B70004FF0FF30EEE70E4A126851790C4A526856
:103B800010786B460122FFF7C5FC10B14FF0FF30F3
:103B9000E0E7074A12681179054A526810786B46C7
:103BA0000122FFF7B7FC28B14FF0FF30D2E7000049
:103BB000500A0020F74890F82400002850D00C202C
:103BC0000090F44A12681179F24A526810786B46F4
:103BD0000122FFF79FFC10B14FF0FF30BAE7C02081
:103BE0000090EC48807A00F0010020B19DF80000C0
:103BF00040F020000090E74A12681179E54A5268C7
:103C000010786B460122FFF785FC10B14FF0FF30B2
:103C1000A0E7E048407C10B10220009001E00020C5
:103C20000090DC4A1268D17BDA4A526810786B4601
:103C30000122FFF76FFC10B14FF0FF308AE7002040
:103C40000090D44A12685179D24A526810786B4673
:103C50000122FFF75FFC002852D04FF0FF3079E7D8
:103C600004200090CB4A12681179CA4A5268107831
:103C70006B460122FFF74EFC10B14FF0FF3069E7B1
:103C8000C448807C20B9C348807A00F0010010B994
:103C90004020009001E060200090BE4A1268117937
:103CA000BC4A526810786B460122FFF733FC10B112
:103CB0004FF0FF304EE7B748407C10B10120009034
:103CC00001E000200090B34A1268D17BB14A5268EB
:103CD00010786B460122FFF71DFC10B14FF0FF304A
:103CE00038E7AC4A12685179AA4A52681078A94B51
:103CF00010330122FFF70EFC10B14FF0FF3029E71F
:103D0000002027E770B50446002624F00104A148EE
:103D100090F8240008B1002070BD9E48807A10B948
:103D20004FF0FF30F8E79B48057C807A20409949A6
:103D300008740846007CA04202D04FF0FF3600E035
:103D4000002614B99348007D18B10120FFF736FD15
:103D500002E00020FFF732FD3CB1FFF7F5FE20B195
:103D60008C4805744FF0FF30D6E73046D4E738B5BD
:103D700004468848807A10B94FF0FF3038BDBC2C1B
:103D800002DB0120009015E0622C02DB0220009093
:103D900010E02A2C02DB032000900BE0142C02DB45
:103DA0000420009006E00A2C02DB0520009001E0D0
:103DB000062000907748C07A9DF80010884201D113
:103DC0000020DBE7734A12689178724A52681078D3
:103DD0006B460122FFF79EFB10B14FF0FF30CDE79D
:103DE0009DF800106B48C1720020C7E738B5044643
:103DF000282C02DD4FF0FF3038BDDCB90020FFF782
:103E000067FD00208DF8000007208DF80100614A51
:103E10001268917C5F4A526810786B460222FFF765
:103E200079FB10B14FF0FF30E6E7002159480175EA
:103E30000020E1E70120FFF74BFD20208DF8000076
:103E4000012C06D100208DF801000520FFF78FFF1F
:103E500017E0052C06DC01208DF801000520FFF796
:103E600086FF0EE0142C06DC02208DF801000A20EB
:103E7000FFF77DFF05E003208DF801001420FFF718
:103E800076FF9DF80100072101EB8010C0B28DF88C
:103E90000100404A1268917C3E4A526810786B4695
:103EA0000222FFF737FB10B14FF0FF30A4E70821E3
:103EB0003848817200210173012101750020FFF74C
:103EC00021FF002098E738B504463248807A10B9BF
:103ED0004FF0FF3038BD2F4890F8240010B14FF05C
:103EE000FF30F7E72B48007D50B134B1282C04DCBB
:103EF000E0B2FFF77BFF0020ECE70020FFF776FF42
:103F0000042C01DA042404E0B4F57A7F01DD4FF4D7
:103F10007A744FF47A7090FBF4F0401EC0B20090B7
:103F20001C4A126851781B4A526810786B4601226D
:103F3000FFF7F0FA10B14FF0FF30CBE79DF800002B
:103F4000401C4FF47A7191FBF0F081B21148C181AD
:103F50000146C9894810FFF70AFF0020BAE738B5C3
:103F600004460C48807A10B94FF0FF3038BD022C5F
:103F700006D0042C07D0082C08D0102C0FD10BE051
:103F8000002000900EE0082000900BE01020009030
:103F900008E00000500A00201820009002E04FF0D6
:103FA000FF30E3E700BFF948407A9DF80010B0EB1E
:103FB000E10F01D10020D9E7F44A1268D179F34A20
:103FC000526810786B460122FFF7A4FA10B14FF047
:103FD000FF30CBE79DF80000C110EC484172002093
:103FE000C4E738B50446E948807A10B94FF0FF308D
:103FF00038BDFA2C09D0B4F5FA7F09D0B4F57A7F30
:1040000009D0B4F5FA6F0CD108E0002000900BE065
:104010000820009008E01020009005E01820009093
:1040200002E04FF0FF30E3E700BFD848007A9DF888
:104030000010B0EBE10F01D10020D9E7D34A12689C
:104040009179D24A526810786B460122FFF762FAE2
:1040500010B14FF0FF30CBE79DF80000C010CB4906
:1040600008720020C4E71CB580208DF80000C74A04
:104070001268917CC54A526810786B460122FFF79E
:1040800049FA10B14FF0FF301CBD642002F0E5FD8D
:1040900000208DF80000BD4A1268917CBB4A52682E
:1040A00010786B460122FFF735FA10B14FF0FF3060
:1040B000EAE7B64A1268917DB44A526810786B46B6
:1040C0000622FFF757FA10B14FF0FF30DCE79DF8FA
:1040D0000500C007400F9DF8031001F0010140EA00
:1040E00041009DF8011001F0010140EA010494B182
:1040F000012C03D10121A548C17431E0022C03D168
:104100000021A248C1742BE02146A1A002F09EFE2E
:104110004FF0FF30B8E79D4A1268D1789B4A526849
:1041200010786B460122FFF725FA10B14FF0FF30EF
:10413000AAE79DF8000000F00F042CB99E4802F099
:1041400085FE4FF0FF309FE7042C06D19BA002F0C4
:104150007DFE01218D48C17402E000218B48C174AD
:10416000FF218A488172FF2088490872FF21874811
:104170004172C1724FF6FF71C181FF2101748174D8
:104180000121017380F82210002180F8231041756D
:1041900001751630016041608160163880F8241086
:1041A00080F82510C1844FF4FA60FFF71AFF10B1B0
:1041B0004FF0FF3068E70220FFF7D1FE10B14FF05B
:1041C000FF3061E72A20FFF7D2FD10B14FF0FF303A
:1041D0005AE73220FFF777FE10B14FF0FF3053E778
:1041E0000020FFF78FFD10B14FF0FF304CE70020AB
:1041F000FFF706FC10B14FF0FF3045E70020FFF756
:104200009AFB002040E770477CB504460D465F48A6
:10421000807A00F0700010B94FF0FF307CBD5B4A2F
:104220001268117B594A526810786B460622FFF7D4
:10423000A1F910B14FF0FF30F0E79DF801009DF8B3
:10424000001040EA012000B220809DF803009DF894
:10425000021040EA012000B260809DF805009DF840
:10426000041040EA012000B2A08015B12846FFF7F3
:10427000CAFF0020D2E77CB504460D464348807A49
:1042800000F0080010B94FF0FF307CBD3F4A1268C3
:10429000517B3E4A526810786B460622FFF76AF956
:1042A00010B14FF0FF30F0E79DF801009DF80010CD
:1042B00040EA012000B220809DF803009DF8021022
:1042C00040EA012000B260809DF805009DF80410CE
:1042D00040EA012000B2A08015B12846FFF793FF05
:1042E0000020D2E72DE9FE4F05460C462748807A8C
:1042F00018B94FF0FF30BDE8FE8F244A1268917B59
:10430000224A5268107802AB0222FFF733F910B14B
:104310004FF0FF30EFE79DF809009DF8081040EAE4
:10432000012006B214B12046FFF76DFF1749496816
:10433000C88804F001FB154901904968B1F90800EB
:1043400004F0E2FA8346304604F0DEFA5946009063
:1043500004F038FC8246019904F0A4F981461F4913
:1043600004F032F980464FF08F4104F02DFB0746F0
:1043700004F08EFA28600020BDE710B588B004462E
:104380001CB94FF0FF3008B010BD29E0500A0020E2
:10439000556E737570706F7274656420736F667498
:1043A000776172652070726F6475637420726576D0
:1043B0002025642E0A000000F0A2000848616C6607
:1043C0002073656E7369746976697479207061729F
:1043D0007420666F756E642E0D0A000000000C429A
:1043E000206830B9606820B9A06810B9002008B012
:1043F00010BDFA494968087806AB03221146FFF759
:10440000B9F810B14FF0FF30F1E79DF8180008211E
:1044100001EB201000F00F00ADF800009DF819002E
:1044200001EB201000F00F00ADF802009DF81A001B
:1044300001EB201000F00F00ADF8040020684100EF
:10444000BDF90000403091FBF0F000B2ADF8100073
:1044500060684100BDF90200403091FBF0F000B20D
:10446000ADF81200A0684100BDF90400403091FB96
:10447000F0F000B2ADF81400D8494968087806ABEE
:1044800006221146FFF776F810B14FF0FF30AEE785
:104490009DF819009DF8181040EA012000B2ADF80F
:1044A00008009DF81B009DF81A1040EA012000B298
:1044B000ADF80A009DF81D009DF81C1040EA01208F
:1044C00000B2ADF80C00BDF81000BDF808100844AB
:1044D00000B2ADF81000BDF81200BDF80A10084493
:1044E00000B2ADF81200BDF81400BDF80C1008447D
:1044F00000B2ADF81400BDF81000000A8DF81800E5
:10450000BDF81000C0B28DF81900BDF81200000A05
:104510008DF81A00BDF81200C0B28DF81B00BDF86E
:104520001400000A8DF81C00BDF81400C0B28DF80C
:104530001D00AA494968087806AB06221146FEF715
:10454000E9FF10B14FF0FF3051E700204FE701467F
:10455000A248007A30B1012807D0022809D00328E8
:104560000FD10AE0FA2008800EE04FF4FA700880BC
:104570000AE04FF47A70088006E04FF4FA60088091
:1045800002E00020088000BF00BF00207047014605
:104590009248407A30B1012807D0022808D0032879
:1045A0000CD108E0022008700BE00420087008E03D
:1045B0000820087005E01020087002E04FF0FF307E
:1045C000704700BF8548C07C18B108784006000ECF
:1045D00008700020F4E701468048C07A082817D206
:1045E000DFE800F01704070A0D101318BC2008803C
:1045F00013E06220088010E02A2008800DE01420DB
:1046000008800AE00A20088007E00520088004E00E
:1046100000BF00BF0020088000BF00BF002070471F
:1046200001466E4890F8240010B14FF0FF307047FB
:104630006A48C08908800020F9E701460020088008
:10464000401E704701464FF0FF30704701466348F7
:10465000007A30B1012807D0022808D003280CD1F5
:1046600008E05F4808600BE05E48086008E05E48CC
:10467000086005E05D48086002E04FF0FF307047D9
:1046800000BF0020FBE701465448407A30B10128C2
:1046900008D002280AD0032810D10BE04FF4804044
:1046A00008800EE041F69C7008800AE04FF48050CC
:1046B000088006E04FF40060088002E04FF0FF3011
:1046C000704700BF4548C07C10B108884010088082
:1046D0000020F5E701464148007C08700020704743
:1046E00001463E48807A10B10120087001E00020A8
:1046F00008700020704738B504463848807A10B9F1
:104700004FF0FF3038BD354A1268117C334A526889
:1047100010786B460222FEF72DFF10B14FF0FF30EC
:10472000F0E79DF801009DF8001040EA012000B27A
:1047300020800020E6E72DE9FE4F07468846924696
:104740001D46DDF830B000260024244890F82400EF
:1047500010B1601EBDE8FE8F002028701F48807ACF
:1047600010B94FF0FF30F5E71C48007C10B94FF04E
:10477000FF30EFE71948007C00F0400008B1B01CA2
:10478000C6B21648007C00F0200008B1B01CC6B2CA
:104790001248007C00F0100008B1B01CC6B20F48EF
:1047A000007C00F0080008B1B01DC6B20B4A1268C8
:1047B000917A0A4A526810786B460222FEF7DAFEB6
:1047C00010B14FF0FF30C5E79DF801009DF80010D3
:1047D00040EA0129B1450BDA0020BBE7500A00206E
:1047E00000000343000083423333034233338341E9
:1047F000FC4840684088B9EB600F17DDF94A126841
:10480000517CF84A526810786B460122FEF7B2FEDE
:1048100010B14FF0FF309DE79DF8000000F0100050
:1048200020B1FFF791F96FF0010093E75046FFF7D1
:10483000EAFCEC4A1268D17AEA4A526810786B4670
:104840003246FEF797FE10B14FF0FF3082E799FB3A
:10485000F6F0401E8BF8000000202870B4422AD0E9
:10486000E048007C00F0080028B3601C1DF8000040
:104870001DF8041040EA012000B2A8F80000E01C76
:104880001DF80010A01C1DF8000041EA002000B235
:10489000A8F80200601D1DF80010201D1DF8000082
:1048A00041EA002000B2A8F80400287840F008008F
:1048B0002870A01D84B2B44213D0CA48007C00F016
:1048C000400070B1601C1DF800001DF8041040EAA3
:1048D000012000B23880287840F040002870A01CE9
:1048E00084B2B44213D0BF48007C00F0200070B105
:1048F000601C1DF800001DF8041040EA012000B201
:104900007880287840F020002870A01C84B2B4423F
:1049100013D0B448007C00F0100070B1601C1DF88A
:1049200000001DF8041040EA012000B2B880287889
:1049300040F010002870A01C84B200200AE7F8B5EF
:1049400004460F461646A74890F8240010B94FF0C9
:10495000FF30F8BDA348807A10B94FF0FF30F8E778
:10496000A04A1268917A9F4A526810786B460222D8
:10497000FEF700FE10B14FF0FF30EAE79DF80100AE
:104980009DF8001040EA0125A54203DA00203070AE
:10499000401EDEE7934840684088B5EB600F17DDA6
:1049A000904A1268517C8F4A526810786B460122F7
:1049B000FEF7E0FD10B14FF0FF30CAE79DF80000B0
:1049C00000F0100020B1FFF7BFF86FF00100C0E762
:1049D000E2B2844B1B68D97A824B5B6818783B46FD
:1049E000FEF7C8FD10B14FF0FF30B2E795FBF4F0D1
:1049F000401E30700020ACE701467A4880F8221053
:104A0000002070477CB5054676494968087801ABB7
:104A100004220D21FEF7AEFD08B107207CBD9DF8F4
:104A20000700C0F301109DF8041001F0E00140EA16
:104A3000E1008DF800009DF80700C0F381009DF8AB
:104A4000051001F0E00140EAE1008DF801009DF859
:104A5000070000F003009DF8061001F0E00140EAB5
:104A6000E1008DF8020000241CE01DF8040018B9D4
:104A7000002045F8240013E05B4845F8240006E0D8
:104A800055F82400594903F09FFF45F824001DF80C
:104A90000400401EC0B20DF804000028F0D100BF91
:104AA000601CC4B2032CE0DB0020B7E72DE9FE4F09
:104AB00006460F4600256846FFF7A4FF002442E0A3
:104AC00056F8240057F82410A0EB010ABAF1000FA1
:104AD00001DB514601E0CAF10001084603F014FF72
:104AE00083464FF08F4103F0DDFD80465DF82400E2
:104AF000002103F099FE16D05DF82410404603F023
:104B0000D1FD82464FF07E5104F05CF8814629F0D9
:104B1000004A3748416A504604F022F812D2012078
:104B2000A04005430EE03248C169404603F018FF3B
:104B300005D32F48016A404604F012F802D2012042
:104B4000A0400543641C032CBADB2846BDE8FE8F59
:104B50002DE9FC5F06460F46002522494968087882
:104B600001AB03220D21FEF705FD10B10720BDE8C2
:104B7000FC9F9DF8040000F01F008DF804009DF8D4
:104B8000050000F01F008DF805009DF8060000F0FC
:104B90001F008DF80600002462E056F8240057F844
:104BA0002410A0EB010BBBF1000F01DB594601E023
:104BB000CBF10001084603F0A7FE4FF08F410090B3
:104BC00003F070FD814601A8005DC0B30849086884
:104BD00003F0B2FE83465946064803F063FD804663
:104BE0000FE00000500A00207B14AE3E1D5A843FA7
:104BF000E095000800B04C45FE49404603F0E4FE55
:104C0000804601A8005D401EC0B201A908550028D9
:104C1000F2D14146484603F045FD83464FF07E51B0
:104C200003F0D0FF82462AF0004BF34881695846D2
:104C300003F096FF13D20120A04005430FE0FFE7E9
:104C4000ED480169484603F08BFE05D3EA48416907
:104C5000484603F085FF02D20120A0400543641CB2
:104C6000032C9ADB284682E72DE9F04F87B00546F2
:104C70000C46914601208DF8100000208DF811009F
:104C8000DE4A1268917CDD4A5268107804AB022239
:104C9000FEF740FC20B14FF0FF3007B0BDE8F08FC9
:104CA000C82001F0DAFF00208DF81000D34A126806
:104CB000D17BD24A5268107804AB0122FEF72AFC5D
:104CC00010B14FF0FF30E8E7CC4A12685179CB4A77
:104CD0005268107804AB0122FEF71CFC10B14FF0B3
:104CE000FF30DAE7C54A1268917CC44A52681078EE
:104CF00004AB0122FEF70EFC10B14FF0FF30CCE701
:104D0000BE4A1268D17DBD4A5268107804AB0122B8
:104D1000FEF700FC10B14FF0FF30BEE7B74A126853
:104D20001179B64A5268107804AB0122FEF7F2FB03
:104D300010B14FF0FF30B0E70C208DF81000AF4AF3
:104D400012681179AD4A5268107804AB0122FEF75F
:104D5000E1FB10B14FF0FF309FE70F2001F07DFF26
:104D6000A648806A407A8DF81000A44A12689178AB
:104D7000A24A5268107804AB0122FEF7CBFB10B1B7
:104D80004FF0FF3089E79D48806A007A8DF8100067
:104D90009A4A12685178994A5268107804AB0122F5
:104DA000FEF7B8FB10B14FF0FF3076E7B9F1000F16
:104DB00007D09248806A807A40F0E0008DF81000B9
:104DC00004E08E48806A807A8DF810008B4A126861
:104DD00091798A4A5268107804AB0122FEF79AFB57
:104DE00010B14FF0FF3058E7B9F1000F07D08348FA
:104DF000806AC07A40F0E0008DF8100003E07E4841
:104E0000C07A8DF810007D4A1268D1797B4A5268C9
:104E1000107804AB0122FEF77DFB10B14FF0FF309C
:104E20003BE7B9F1000F02D0C82001F016FF402087
:104E30008DF81000714A12681179704A5268107822
:104E400004AB0122FEF766FB10B14FF0FF3024E700
:104E500078208DF81000694A12685179674A5268C3
:104E6000107804AB0122FEF755FB10B14FF0FF3074
:104E700013E76149888901F0F0FE00208DF81000E9
:104E80005E4A126851795D4A5268107804AB01227B
:104E9000FEF740FB10B14FF0FF30FEE6574A1268B4
:104EA000917A564A5268107804AB0222FEF762FBF0
:104EB00010B14FF0FF30F0E69DF811009DF8101092
:104EC00040EA012B0C209BFBF0F0C6B20020A8604A
:104ED00068602860A06060602060824665E0474AA4
:104EE0001268D17A454A5268107804AB0C22FEF75A
:104EF00041FB10B14FF0FF30CFE69DF811009DF857
:104F0000101040EA012000B2ADF808009DF813002F
:104F10009DF8121040EA012000B2ADF80A009DF899
:104F200015009DF8141040EA012000B2ADF80C0005
:104F3000BDF90810206808442060BDF90A106068B7
:104F400008446060BDF90C10A0680844A0609DF89A
:104F500017009DF8161040EA012000B2ADF80000DD
:104F60009DF819009DF8181040EA012000B2ADF834
:104F700002009DF81B009DF81A1040EA012000B2C3
:104F8000ADF80400BDF90010286808442860BDF998
:104F90000210686808446860BDF90410A8680844F5
:104FA000A8600AF1010000F0FF0AB24597DB124841
:104FB000D0F800C02868C117090441EA104107046D
:104FC00062460023384601F01CFF32460023CDE93B
:104FD000020101F016FF28600748D0F800C0686899
:104FE000C117090441EA104107046246002338460C
:104FF00006E0000054E3853FE0950008500A0020D9
:1050000001F0FFFE32460023CDE9020101F0F9FE76
:105010006860FE48D0F800C0A868C117090441EADA
:105020001041070462460023384601F0EAFE32468A
:105030000023CDE9020101F0E4FEA860F348D0F8B6
:1050400004C02068C117090441EA10410704624600
:105050000023384601F0D5FE32460023CDE9020197
:1050600001F0CFFE2060E948D0F804C06068C117A5
:10507000090441EA1041070462460023384601F062
:10508000C0FE32460023CDE9020101F0BAFE6060A5
:10509000DE48D0F804C0A068C117090441EA1041F5
:1050A000070462460023384601F0ABFE3246002377
:1050B000CDE9020101F0A5FEA060A068002804DD92
:1050C000A068A0F58030A06003E0A06800F5803003
:1050D000A0600020E1E538B50446CD4890F82400F2
:1050E000A04201D1002038BD24B3C94890F8250062
:1050F00010B94FF0FF30F6E70020FEF75FFB00200D
:10510000FEF77EFCC249C88CFEF7DDFE0020009051
:10511000BF49496808786B4601222321FEF7FAF956
:105120000121BB4880F824100120FEF747FBFEF761
:105130000BFD13E00020FEF741FBB548007C00901A
:10514000B349496808786B4601222321FEF7E2F94A
:105150000021AF4880F82410FEF7F6FC0020C2E7DB
:105160002DE9F04F8DB083460F4602200C90A848E1
:1051700090F8240020B10020FFF7ADFF012600E0E9
:10518000002603A8FFF7E3F905A8FFF700FA01A836
:10519000FFF721FA02A8FFF743FA9D4890F80AA00A
:1051A00004A8FFF797FA002407E000223946584682
:1051B000FFF75AFD00B902E0641C022CF5DB00BFCA
:1051C000022C01D1002528E0002407E0012206A9D5
:1051D00009A8FFF749FD00B902E0641C022CF5DBC9
:1051E00000BF022C01D1002517E006A93846FFF7C1
:1051F0005DFC00F0FF0809A95846FFF7A9FC00F084
:10520000FF090025B9F1000F01D145F00105B8F102
:10521000000F01D145F0020500BFFF207C49087254
:10522000FF217B484172C1724FF6FF71C181FF219E
:105230008172017401210173BDF80C00FEF7D1FEEB
:105240009DF81400FEF78BFEBDF80400FEF78FFDFD
:10525000BDF80800FEF737FE5046FEF76CFB9DF8E0
:105260001000FEF74FFD16B10120FFF734FF28466E
:105270000DB0BDE8F08FF8B504460D46164616B9D8
:105280004FF0FF30F8BD6248807A10B94FF0FF3020
:10529000F8E720128DF80000E0B28DF801009DF8CB
:1052A000010028445A4949684989884202DD4FF083
:1052B000FF30E7E7564A1268117E554A5268107867
:1052C0006B460222FEF726F910B14FF0FF30D9E706
:1052D000EAB24F4B1B68597D4D4B5B6818783346DB
:1052E000FEF718F910B14FF0FF30CBE70020C9E707
:1052F000F8B504460D46164616B94FF0FF30F8BD16
:105300004348807A10B94FF0FF30F8E720128DF84B
:105310000000E0B28DF801009DF8010028443C49EE
:1053200049684989884202DD4FF0FF30E7E7384A93
:105330001268117E364A526810786B460222FEF7D8
:10534000E9F810B14FF0FF30D9E7EAB2304B1B68F3
:10535000597D2F4B5B6818783346FEF70BF910B177
:105360004FF0FF30CBE70020C9E72DE9F04385B0CF
:1053700005460E4690469946254890F8250020B1EE
:105380004FF0FF3005B0BDE8F08316B94FF0FF30A5
:10539000F8E7002423E0281B102801DD102000E09E
:1053A000281B87B2321939462046FFF764FF10B137
:1053B0004FF0FF30E6E701AA39462046FFF798FF95
:1053C00010B14FF0FF30DDE730193A4601A901F086
:1053D000E3FD10B16FF00100D4E7E01984B2AC42F4
:1053E000D9DB4FEA28208DF8000008F0FF008DF887
:1053F0000100074A1268917E054A526810786B4690
:105400000222FEF787F840B104E00000E0950008B2
:10541000500A00204FF0FF30B4E701218A4880F89D
:105420002510A0F826900020ACE70146864890F8A9
:10543000240008700020704702464FF0FF3070478C
:1054400001464FF0FF307047F8B505460F46144649
:10545000002C70D0B5F5FF5F01DDFF2605E0202DA3
:1054600001DA012601E0C5F3471607B90127282C08
:1054700002DD4FF0FF30F8BD7348407D28BB724815
:1054800090F8240038B10020FFF725FE01216E4876
:1054900080F8201003E000216B4880F820106A4853
:1054A0001630FFF754F868481830FFF770F8664870
:1054B0001A30FFF790F864481C30FFF7B1F86248E3
:1054C000817A81771F30FFF705F90020FEF776F922
:1054D0000020FEF78BFC00208DF800005A4A12686D
:1054E0009178594A526810786B460122FEF712F8FB
:1054F00010B14FF0FF30BEE740208DF80000524A57
:105500001268D17B504A526810786B460122FEF730
:1055100001F800B165E08DF800608DF801704A4A2D
:105520001268117A484A526810786B460222FDF7D9
:10553000F1FF08B155E047E0052001F08EFB42483D
:10554000407A072101EBC000C0B28DF800003E4A4E
:105550001268D1793C4A526810786B460122FDF7F7
:10556000D9FF00B13DE020208DF80000012C03D1CF
:1055700000208DF801000EE0052C03DC01208DF8E1
:10558000010008E0142C03DC02208DF8010002E089
:1055900003208DF801009DF80100072101EB801028
:1055A000C0B28DF80100284A1268917C264A5268E0
:1055B00010786B460222FDF7ADFF00B111E001212A
:1055C00021484175002056E71F4A1632002103E0AA
:1055D000505C00B105E0491C0C29F9D34FF0FF30B5
:1055E00049E7FF2018490872FF2117484172C1722C
:1055F0004FF6FF71C181FF21817201740121017396
:105600000146887FFEF797F90F49C88AFEF7E9FC43
:105610000D49087EFEF7A3FC0B49488BFEF7A7FB5C
:105620000949888BFEF74FFC0749C87FFEF76AFBE4
:10563000054890F8200010B10120FFF74CFD002133
:1056400001484175002016E7500A002010B5C82314
:105650004FF48062F74940F6F630FFF786FE10BD42
:1056600010B586B00446F4A000680390F3A000686B
:105670000290F3A000680190F2A00068009004F08E
:10568000030003A9085C8DF8140003A8C4F3C1014A
:10569000405C8DF8150003A8C4F38111405C8DF8BF
:1056A000160004F0030002A9085C8DF8100002A89F
:1056B000C4F3C101405C8DF8110002A8C4F381114C
:1056C000405C8DF8120005AA032140F22640FFF746
:1056D000D2FD18B14FF0FF3006B010BD04AA03216F
:1056E00040F22A40FFF7C7FD10B14FF0FF30F3E75B
:1056F000019805900098049004F0040058B19DF8BA
:10570000140040F001008DF814009DF8100040F0E6
:1057100001008DF8100004F0200058B19DF815002C
:1057200040F001008DF815009DF8110040F00100D7
:105730008DF8110004F4807058B19DF8160040F007
:1057400001008DF816009DF8120040F001008DF860
:10575000120005AA03214FF48860FFF78CFD10B1F9
:105760004FF0FF30B8E704AA032140F23140FFF7C1
:1057700082FD10B14FF0FF30AEE7B3480481002046
:10578000AAE71FB50446B048007A00F0030054F8B9
:1057900020000190AC48007A00F0040010B101989C
:1057A00040420190A848007AC0F3C10054F820009C
:1057B0000290A548007A00F0200010B10298404203
:1057C0000290A148007AC0F3811054F820000390A1
:1057D0009D48008900F4807010B103984042039006
:1057E0009A49019880FB0101800F40EA81000190F5
:1057F0009649029880FB0110820042EA9170029063
:105800009249039880FB0110820042EA9170039054
:105810000198000E8DF800000198000C8DF8010031
:105820000198000A8DF802000198C0B28DF80300BB
:105830006A4604214FF47470FFF71DFD18B14FF054
:10584000FF3004B010BD0298000E8DF800000298E1
:10585000000C8DF801000298000A8DF802000298F1
:10586000C0B28DF803006A4604214FF47570FFF74B
:1058700002FD10B14FF0FF30E3E70398000E8DF802
:1058800000000398000C8DF801000398000A8DF8C1
:1058900002000398C0B28DF803006A4604214FF459
:1058A0007670FFF7E8FCCCE770B588B0064601A833
:1058B000FEF7E9FEBDF804000021C90341EA5045A6
:1058C000C4036148007A00F0030056F820000590F8
:1058D0005D48007A00F0040010B105984042059040
:1058E0005948007AC0F3C10056F820000690564887
:1058F000007A00F0200010B106984042069052480D
:10590000007AC0F3811056F8200007904E480089B5
:1059100000F4807010B10798404207900598C117B5
:10592000A0FB042301FB043100FB0510810041EAC8
:10593000927005900698C117A0FB042301FB043167
:1059400000FB0510810041EA927006900798C1178C
:10595000A0FB042301FB043100FB0510810041EA98
:10596000927007900598000E8DF808000598000CBD
:105970008DF809000598000A8DF80A000598C0B254
:105980008DF80B000698000E8DF80C000698000CA0
:105990008DF80D000698000A8DF80E000698C0B22A
:1059A0008DF80F000798000E8DF810000798000C76
:1059B0008DF811000798000A8DF812000798C0B200
:1059C0008DF8130002AA0C214FF42570FFF753FC49
:1059D00008B070BD30B585B004461DA207CA02AB41
:1059E00007C3C82C03DD4FF0FF3005B030BDC82021
:1059F00090FBF4F0401E85B2280A8DF80000E8B252
:105A00008DF801006A46022140F21620FFF733FCB0
:105A100010B14FF0FF30E8E702AA0C2140F6C12098
:105A2000FFF729FC10B14FF0FF30DEE70648848114
:105A30000020DAE7089600084CCD6C000CC92C0059
:105A40003656760026466600B80A002009E3CA02E8
:105A5000FEF2ABC4AAF1DFDFBBAFDFDF0146FC48DB
:105A600080890880002070472DE9FC4706460F46D4
:105A700006F0070010B1B7F5C86F03DD4FF0FF3037
:105A8000BDE8FC87384602F057FF8146F14902F035
:105A900009FE80466846FEF77AFD9DF80000022860
:105AA00006D0042816D0082826D0102848D135E082
:105AB0004FF08D41404602F087FF814602F004FF1F
:105AC00084B2E549404602F07FFF814602F0FCFEC9
:105AD00085B238E04FF08C41404602F075FF8146B8
